:100000000C942B0C0C945C0C0C945C0C0C945C0C01
:100010000C945C0C0C945C0C0C945C0C0C945C0CC0
:100020000C945C0C0C94A7580C94A7580C94A758EB
:100030000C945C0C0C945C0C0C945C0C0C945C0CA0
:100040000C945C0C0C9421610C945C0C0C945C0C76
:100050000C945C0C0C945C0C0C94335A0C94235947
:100060000C945C0C0C946B610C9461610C945C0CB2
:100070000C945C0C0C945C0C0C945C0C0C945C0C60
:100080000C945C0C0C945C0C0C945C0C0C945C0C50
:100090000C945C0C0C945C0C0C945C0C0C945C0C40
:1000A0000C945C0C0C945C0C0C945C0C0C945C0C30
:1000B0000C945C0C0C945C0C0C945C0C0C945C0C20
:1000C0000C945C0C0C945C0C0C945C0C0C945C0C10
:1000D0000C945C0C0C945C0C0C945C0C0C945C0C00
:1000E0000C945C0C084AD73B3BCE016E84BCBFFD30
:1000F000C12F3D6C74319ABD56833DDA3D00C77FF8
:1001000011BED9E4BB4C3E916BAAAABE0000008090
:100110003F05A84CCDB2D44EB93836A9020C50B91F
:10012000918688083CA6AAAA2ABE000000803F004B
:100130000C9446130C9443100C94B80C0C94EF0DD3
:100140000C940B0E0C94E70E0C948B0C0C94070E75
:100150000C94DB0D0C946C120C94B2130C94E10D06
:100160000C94F90D0C94F30D0C94A50D0C94010E48
:100170000C94CA130C94050F0C94420F0C94740F3A
:100180000C94450D0C94E20E0C94D3100C94B71300
:100190000C944C0F0C9464120C94060E0C941F0FCC
:1001A0000C94FD0D0C94D80D0C94F10E0C94330F9F
:1001B0000C9469130C94EB0D0C94C0130C940D0F5C
:1001C0000C948B130C9484120C94600F0C94E50D1A
:1001D0000C94D00C0C9495610C94D00D0C94D40D0F
:1001E0000C94C60D0C94FB0E0C94290F0C94DA0E93
:1001F0000C94AD130C94560F0C942D0D0C94150FFC
:100200000C94CC0D0C946A0F0C94D10C4E414E49B9
:100210004E495459494E46CDCCCC3D0AD7233C17C4
:10022000B7D13877CC2B329595E6241FB14F0A0011
:100230000020410000C84200401C4620BCBE4CCA01
:100240001B0E5AAEC59D74434F4D4D554E4943410B
:1002500054494F4E0044525952554E004552524F48
:10026000525300494E464F004543484F0062757354
:10027000793A2070617573656420666F7220696ECB
:100280007075740A00627573793A207061757365D0
:100290006420666F7220757365720A0062757379E7
:1002A0003A2070726F63657373696E670A0021216B
:1002B000204B494C4C206361757365642062792042
:1002C000746F6F206D75636820696E616374697601
:1002D000652074696D65202D2063757272656E747A
:1002E00020636F6D6D616E643A20005072696E74A8
:1002F00065722073746F7070656420647565207416
:100300006F206572726F72732E2046697820746850
:1003100065206572726F7220616E6420757365204E
:100320004D39393920746F20726573746172742E7F
:10033000202854656D7065726174757265206973EB
:100340002072657365742E20536574206974206172
:10035000667465722072657374617274696E672960
:100360000A004E6F20436865636B73756D20776973
:100370007468206C696E65206E756D6265722C20E4
:100380004C617374204C696E653A20006368656344
:100390006B73756D206D69736D617463682C204C8F
:1003A000617374204C696E653A20004C696E65205B
:1003B0004E756D626572206973206E6F74204C619A
:1003C0007374204C696E65204E756D6265722B31B9
:1003D0002C204C617374204C696E653A20004D31BD
:1003E0003130006563686F3A004572726F723A008F
:1003F00020496E76616C69642065787472756465F5
:100400007220004361703A00526573656E643A2051
:100410000048617264636F64656420446566617559
:100420006C742053657474696E6773204C6F6164DB
:1004300065640A003B200020204D39303600202022
:100440004D35363920533100447269766572207318
:1004500074657070696E67206D6F64653A005374DF
:10046000657070657220647269766572206375725A
:1004700072656E743A0020490020204D33303120DF
:1004800050005049442073657474696E67733A0074
:1004900020204D323036205800486F6D65206F6641
:1004A000667365743A00204A0020204D32303520B2
:1004B0004200416476616E6365643A20423C6D6936
:1004C0006E5F7365676D656E745F74696D655F758A
:1004D000733E20533C6D696E5F666565647261743E
:1004E000653E20543C6D696E5F74726176656C5F29
:1004F00066656564726174653E204A3C6A756E6328
:100500005F6465763E0020204D323034205000413B
:100510006363656C65726174696F6E2028756E69BE
:1005200074732F7332293A20503C7072696E745F75
:10053000616363656C3E20523C72657472616374E2
:100540005F616363656C3E20543C74726176656CD8
:100550005F616363656C3E0020204D32303120586E
:10056000004D6178696D756D20416363656C6572DE
:100570006174696F6E2028756E6974732F733229E8
:100580003A0020204D3230332058004D6178696D9B
:10059000756D206665656472617465732028756E7B
:1005A0006974732F73293A005374657073207065F2
:1005B0007220756E69743A0020204D32303020442C
:1005C000300A0020204D323030204400204469732E
:1005D00061626C65640A0046696C616D656E7420C9
:1005E00073657474696E67733A0020286D6D290015
:1005F0002020473231202020203B20556E69747323
:1006000020696E206D6D006F70656E005452494711
:100610004745524544007A5F6D696E00795F6D69A8
:100620006E00785F6D696E005265706F7274696EEE
:100630006720656E6473746F702073746174757372
:100640000A005761726E696E673A20486F6D696E75
:10065000672042756D702044697669736F72203C23
:1006600020310A0020436F756E7420583A0045729D
:10067000723A204D415854454D50004D4158544513
:100680004D502074726967676572656400457272C7
:100690003A204D494E54454D50004D494E54454D1C
:1006A000502074726967676572656400202F0020AE
:1006B000403A002020506C616E6E6572427566662D
:1006C000657242797465733A200020467265652030
:1006D0004D656D6F72793A2000436F6D70696C657E
:1006E000643A204E6F7620313820323032310A00A1
:1006F000204C61737420557064617465643A2032D3
:100700003032302D30332D3234207C2041757468E6
:100710006F723A20286E6F6E652C20646566617575
:100720006C7420636F6E666967290A00322E302E62
:10073000352E320A004D61726C696E0020536F666F
:1007400074776172652052657365740A0020576181
:10075000746368646F672052657365740A00204291
:10076000726F776E206F75742052657365740A001E
:100770002045787465726E616C2052657365740AE9
:1007800000506F77657255700A00656E6473746F00
:100790007073206869743A20006F6B007370726523
:1007A00061644379636C6500737465616C7468435C
:1007B000686F700020647269766572206D6F646581
:1007C0003A090020647269766572206375727265F9
:1007D0006E743A2000454550524F4D206469736154
:1007E000626C65640A00486F6D652025732573256A
:1007F0007320466972737400546F6F2066617220B3
:1008000066726F6D207265666572656E63652070D5
:100810006F696E740A0023646566696E65204445DD
:100820004641554C545F004B6420004B6920004BFF
:10083000702000504944204175746F74756E6520B6
:1008400066696E69736865642120507574207468E8
:1008500065206C617374204B702C204B6920616E95
:1008600064204B6420636F6E7374616E74732066D2
:10087000726F6D2062656C6F7720696E746F2043B4
:100880006F6E66696775726174696F6E2E680A00B3
:10089000504944204175746F74756E6520666169B6
:1008A0006C6564212074696D656F75740A00544825
:1008B00045524D414C2052554E41574159005468C4
:1008C00065726D616C2052756E6177617900486563
:1008D0006174696E67204661696C65640048656192
:1008E00074696E67206661696C65640050494420D4
:1008F0004175746F74756E65206661696C656421FD
:100900002054656D706572617475726520746F6FC7
:1009100020686967680A00204B643A2000204B6910
:100920003A2000204B703A20000A20436C61737318
:10093000696320504944200A002054753A20002061
:100940004B753A2000206D61783A2000206D696E69
:100950003A200020643A200020626961733A200046
:10096000504944204175746F74756E6520737461CD
:1009700072740A00504944204175746F74756E6535
:10098000206661696C656421204261642065787429
:100990007275646572206E756D6265720A006469B5
:1009A000730043290A0061626C656420286D696EDA
:1009B0002074656D702000436F6C642065787472DC
:1009C0007564657320617265200020643A002069B7
:1009D0003A0020703A00496E76616C69642065784F
:1009E0007472756465720A0020466C6F773A200055
:1009F00046523A0020204D61783A200020204D696F
:100A00006E3A2000536F667420656E6473746F7065
:100A1000733A20003F4A206F7574206F6620726120
:100A20006E67652028302E303120746F20302E33D1
:100A3000290A00205400205200416363656C6572EE
:100A40006174696F6E3A2050002F2F200043484197
:100A50004D4245525F54454D5045524154555245C3
:100A6000004D4F54494F4E5F4D4F4445530054483D
:100A700045524D414C5F50524F54454354494F4E9F
:100A8000004155544F5245504F52545F53445F53A9
:100A900054415455530050524F4D50545F5355508C
:100AA000504F525400454D455247454E43595F50B3
:100AB000415253455200434153455F4C49474854C6
:100AC0005F4252494748544E45535300544F47479D
:100AD0004C455F4C494748545300534F4654574187
:100AE00052455F504F574552004255494C445F5064
:100AF000455243454E54004C4556454C494E475F80
:100B000044415441005A5F50524F424500415554B0
:100B10004F4C4556454C005052494E545F4A4F4247
:100B20000050524F4752455353004155544F524580
:100B3000504F52545F54454D5000564F4C554D4503
:100B40005452494300454550524F4D0042494E4191
:100B500052595F46494C455F5452414E53464552A7
:100B60000053455249414C5F584F4E5F584F4646DF
:100B7000004649524D574152455F4E414D453A4D11
:100B800061726C696E20322E302E352E322028474D
:100B900069744875622920534F555243455F434F4E
:100BA00044455F55524C3A68747470733A2F2F67FE
:100BB00069746875622E636F6D2F4D61726C696E1A
:100BC0004669726D776172652F4D61726C696E2036
:100BD00050524F544F434F4C5F56455253494F4E1E
:100BE0003A312E30204D414348494E455F545950CB
:100BF000453A3344205072696E74657220455854EA
:100C000052554445525F434F554E543A3120555545
:100C100049443A63656465326132662D343161322C
:100C20002D343734382D396231322D633535633602
:100C3000326633363766660A004D31313320530051
:100C40006F66660044454255473A0020573A0050C7
:100C5000726F7465637465642050696E0A00496E32
:100C600076616C69642050696E204D6F64650A007E
:100C700025697920256964202569682025696D200A
:100C8000256973005072696E742074696D653A202D
:100C9000005A5F6D6F76655F636F6D700A00473253
:100CA0002F47332062616420706172616D657465E5
:100CB00072730A0020746F6F206C6F6E6720657806
:100CC00074727573696F6E2070726576656E746587
:100CD000640A0020636F6C642065787472757369B0
:100CE0006F6E2070726576656E7465640A00220A04
:100CF00000556E6B6E6F776E20636F6D6D616E6405
:100D00003A20220020453A00205A3A0020593A0061
:100D1000204500205A00205900204D39322058002B
:100D20004C4F570048494748004F4B004572726F7F
:100D3000723A20416C6C200020636F6E6E656374A4
:100D4000696F6E2E2E2E200054657374696E6720B5
:100D5000002C2073797374656D2073746F707065E7
:100D60006421204865617465725F49443A200050EF
:100D700072696E7465722068616C7465642E206B94
:100D8000696C6C28292063616C6C6564210A0070B1
:100D9000012C0190012701B0012201C0011D01F0C9
:100DA0000118011002130130020E016002090190C6
:100DB000020401C002FF000003FA004003F50080B6
:100DC00003F000D003EB002004E6007004E100E033
:100DD00004DC004005D700C005D2004006CD00D09D
:100DE00006C8008007C3003008BE00F008B900C084
:100DF00009B400B00AAF00B00BAA00D00CA50000E7
:100E00000EA000500F9B00C01096005012910000E1
:100E1000148C00C0158700B0178200B0197D00D077
:100E20001B7800001E730040206E0090226900F0C5
:100E300024640040275F0090295A00E02B550010E1
:100E40002E500020304B0010324600E0334100901D
:100E5000353C001037370070383200A0392D00B013
:100E60003A2800A03B2300603C1E00103D19009072
:100E70003D1400103E0F00703E0A00C03E05000009
:100E80003F0000403FFBFF803FF6FFC03FF1FF36D1
:100E90003726033C3D380E2E303E121A1C180AFF2E
:100EA0004309000100004843000048430000484354
:100EB0000000000000000000000000000000964359
:100EC000000096430000A0400000C8410000A0427E
:100ED0000000A04200007A450000FA43B80B000071
:100EE000B80B00006400000010270000020204009C
:100EF00000A0400000A0400000004024F4D4305086
:100F0000C38E20C2A24017828B7011127A910D817C
:100F10006CD90AA861E108C7586607615143061EEB
:100F20004B5D05C145A7041A411104093D980371A1
:100F30003931034036DB0265339102D430540280EC
:100F40002E1D02632CEE01752AC501B028A00110E8
:100F50002781018F2564012B244B01E0223401AC51
:100F6000211F018D200D01801FFC00841EED0097C4
:100F70001DDF00B81CD200E61BC600201BBC0064AD
:100F80001AB200B219A8000A19A0006A189900D173
:100F900017910040178B00B516840031167E00B300
:100FA0001579003A157300C7146F0058146A00EEE3
:100FB0001366008813630025135E00C7125B006C84
:100FC00012570015125400C111510070114F002129
:100FD000114B00D61049008D104700461044000206
:100FE000104200C00F4000800F3E00420F3C000640
:100FF0000F3B00CB0E3800930E37005C0E350027F8
:101000000E3400F30D3200C10D3100900D30006040
:101010000D2E00320D2D00050D2C00D90C2B00AE2D
:101020000C2900850C29005C0C2700350C27000ECC
:101030000C2600E80B2400C40B2400A00B23007D29
:101040000B23005A0B2100390B2100180B2000F84C
:101050000A1F00D90A1E00BB0A1E009D0A1D00803F
:101060000A1D00630A1C00470A1B002C0A1B001102
:101070000A1A00F7091A00DD091900C4091900ABA2
:10108000091900920917007B091800630917004C21
:1010900009160036091600200916000A091500F580
:1010A000081500E0081400CC081400B8081400A4C7
:1010B000081400900813007D0812006B08130058F4
:1010C000081200460812003408110023081100120B
:1010D00008110001081100F0071000E0071000D00F
:1010E000071000C0071000B0070F00A10710009103
:1010F000070E0083070F0074070F0065070E0057E7
:10110000070E0049070E003B070D002E070E0020BA
:10111000070D0013070D0006070D00F9060C00ED82
:10112000060D00E0060C00D4060C00C8060C00BC3E
:10113000060C00B0060C00A4060B0099060C008DEE
:10114000060B0082060B0077060B006C060B006195
:10115000060A0057060B004C060A0042060A003831
:10116000060A002E060A0024060A001A060A0010C3
:1011700006090007060A00FD050900F4050900EB51
:10118000050900E2050900D9050900D0050900C7D5
:10119000050900BE050900B5050800AD050800A554
:1011A0000509009C050800940508008C05080084CA
:1011B0000508007C050800740508006C050700653B
:1011C0000508005D050700560508004E05070047A5
:1011D0000507004005080038050700310507002A0B
:1011E000050700230507001C050600160507000F6C
:1011F0000507000805060002050700FB040600F5C8
:10120000040700EE040600E8040600E2040700DB21
:10121000040600D5040600CF040600C9040600C376
:10122000040600BD040600B7040600B1040500ACC6
:10123000040600A6040600A00405009B0406009511
:10124000040500900406008A04050085040500805A
:101250000406007A04050075040500700405006B9F
:1012600004050066040500610405005C04050057E0
:10127000040500520405004D040500480405004320
:101280000405003E0404003A04050035040500305E
:101290000404002C04050027040400230405001E98
:1012A0000404001A04040016040500110404000DCF
:1012B000040400090405000404040000040400FC04
:1012C000030400F8030400F4030400F0030400EC3A
:1012D000030400E8030400E4030400E0030400DC6A
:1012E000030400D8030400D4030400D0030400CC9A
:1012F000030400C8030300C503030024F404D92039
:101300001BC40C5C0E9804C4095F0265077101F4EC
:1013100005F900FB04B30048048700C103690058C5
:1013200003550003034500BE023A00840231005316
:10133000022A002902250004022000E4011C00C842
:10134000011900AF01170098011400840113007106
:101350000110006101100051010E0043010D003623
:10136000010B002B010B0020010B00150109000CE3
:1013700001090003010800FB000800F3000800EB6E
:10138000000700E4000600DE000600D8000600D2D8
:10139000000600CC000500C7000500C2000500BD26
:1013A000000400B9000400B5000400B1000400AD61
:1013B000000400A9000400A5000300A20003009F90
:1013C0000004009B000300980003009500020093B6
:1013D000000300900003008D0002008B00030088D2
:1013E0000002008600020084000300810002007FEA
:1013F0000002007D0002007B0002007900020077FD
:101400000001007600020074000200720001007109
:101410000002006F0002006D0001006C0002006A13
:10142000000100690002006700010066000100651C
:101430000001006400020062000100610001006020
:101440000001005F0002005D0001005C0001005B24
:101450000001005A00010059000100580001005726
:101460000001005600010055000100540001005326
:101470000000005300010052000100510001005023
:101480000001004F0001004E0000004E0001004D21
:101490000001004C0001004B0000004B0001004A1D
:1014A0000001004900010048000000480001004719
:1014B0000001004600000046000100450000004514
:1014C000000100440001004300000043000100420D
:1014D0000000004200010041000000410001004006
:1014E0000001003F0000003F0001003E0000003E00
:1014F0000001003D0000003D0001003C0000003CF8
:101500000000003C0001003B0000003B0001003AED
:101510000000003A000100390000003900010038E5
:1015200000000038000000380001003700000037DC
:1015300000010036000000360000003600010035D2
:1015400000000035000000350001003400000034C8
:1015500000000034000100330000003300000033BD
:1015600000010032000000320000003200010031B2
:1015700000000031000000310001003000000030A8
:10158000000000300001002F0000002F0000002F9D
:101590000000002F0001002E0000002E0000002E91
:1015A0000001002D0000002D0000002D0000002D86
:1015B0000001002C0000002C0000002C0000002C7A
:1015C0000001002B0000002B0000002B0000002B6E
:1015D0000001002A0000002A0000002A0000002A62
:1015E0000001002900000029000000290000002956
:1015F0000000002900010028000000280000002849
:10160000000000280000002800010027000000273B
:10161000000000270000002700000027000100262E
:101620000000002600000026000000260000002622
:101630000001002500000025000000250000002515
:101640000000002500000025000100240000002407
:1016500000000024000000240000002400010023FA
:1016600000000023000000230000002300000023EE
:1016700000000023000000230001002200000022DF
:1016800000000022000000220000002200000022D2
:1016900000010021000000210000002100000021C5
:1016A00000000021000000210000002100010020B6
:1016B00000000020000000200000002000000020AA
:1016C0000000002000000020000000200001001F9A
:1016D0000000001F0000001F0000001F0000001F8E
:1016E0000000001F0000001F0001001E0000001E7F
:1016F0000000001E0000001E000000043700001E55
:10170000290000511B00005810000010090000CCF7
:1017100004000078020000410100000000210024C4
:101720000027002A002D00300033000101000004D2
:101730000107010A0100000A0B02090C0D0E08073F
:101740000304010000000000000000000000000091
:101750000000000000000000000000000000000089
:101760000012111000000000000000000000000046
:101770000000000000000000000000FFFFFF680202
:1017800063025C02550247020000484200004842E2
:1017900000008040000020002300260029002C00CB
:1017A0002F003200000100000301060109010000C2
:1017B0002200250028002B002E00310034000201F9
:1017C0000000050108010B010505050507050808CE
:1017D0000808020202020A0A0808040404040101BB
:1017E00001010101010103030303030303030407D0
:1017F00007070C0C0C0C0C0C0C0C02020202060667
:101800000606060606060B0B0B0B0B0B0B0B010259
:101810001020200808102040102040800201020102
:1018200008040201010204081020408080402010BA
:101830000804020180040201804020100804020113
:10184000080402010102040810204080010204087B
:1018500010204080956111241FBECFEFD1E2DEBF82
:10186000CDBF00E00CBF12E0A0E0B2E0E4E2F7EE92
:1018700000E00BBF02C007900D92A839B107D9F75D
:101880002CE0A8E9B2E001C01D92A531B207E1F752
:101890001CE0CBE2DCE000E006C021970109802FCC
:1018A000FE010E941970CA32D10780E00807A9F72B
:1018B0000E94F4620C9490730C9400000F931F9399
:1018C000CF93DF93582FFC0180E077E0919148E0BF
:1018D000282F30E0A92FB0E08901000F012F001F51
:1018E000110B9170C92F90E0D92F880F0C171D078D
:1018F00021F0C901880F991F8727B595A7959A2FC1
:10190000415031F79E2F951B961700F3DF91CF9131
:101910001F910F910895AF92BF92CF92DF92EF92F5
:10192000FF920F931F93CF93DF936C017B018B0189
:10193000040F151FEB015E01AE18BF08C017D107D9
:1019400059F06991D601ED91FC910190F081E02D63
:10195000C6011995892B79F7C501DF91CF911F91A8
:101960000F91FF90EF90DF90CF90BF90AF900895D0
:1019700020911F06309120062817390771F49091A5
:101980001E0680911D06981741F0E0911E06F0E0BA
:10199000E352FA4F808190E008958FEF9FEF089512
:1019A0000895EF92FF920F931F93CF93DF93DC0183
:1019B0005C96ED90FC905D97E114F10479F481E080
:1019C00090E013969C938E93129790E080E0DF91C5
:1019D000CF911F910F91FF90EF9008955196ED9147
:1019E000FC91529750968C915097982F90950FB7E5
:1019F0005E962C915E97122F127021FD6095F894DF
:101A00002081112319F1282B2083E7012197F1F779
:101A100028E0462F50E0308160FF1AC0382B308319
:101A2000E7012197F1F7BA0175956795215089F77C
:101A3000112381F08081892380830FBF5C968D9173
:101A40009C910197F1F781E090E0C1CF2923DCCF91
:101A50003923E5CF9081892BEFCF20911F0630915C
:101A600020062817390771F480911D0620911E0663
:101A700090E0805C9F4F821B910960E470E00E94BF
:101A8000E66F089590E080E0089520911F06309160
:101A9000200628173907B9F490911E0680911D067B
:101AA000981789F0E0911E06F0E0E352FA4F80812A
:101AB00020911E0630E02F5F3F4F2F733327209376
:101AC0001E0690E008958FEF9FEF0895E0911F06A6
:101AD000F0912006E817F90769F4A389B4899C916D
:101AE0008589809589238C931092200610921F0679
:101AF00081E0089580E00895CF93DF93EC018A8D13
:101B00009B8D892B01F180911F06909120068C17E7
:101B10009D07C9F0009711F00E94660D8E8D8E7F93
:101B20008E8F10921D0610921E06D0932006C09331
:101B30001F06EB89FC8980819D89892B808381E048
:101B4000DF91CF91089580E0FBCF90E080E0089591
:101B50008150823108F05AC0E82FF0E08827EC5419
:101B6000F24F8F4F0C941970D40DD80DC60DCC0DBB
:101B7000D00D060EDB0DE10DE50DEB0DEF0DF30DB8
:101B8000F90DFD0D060E010E070E0B0E8091800063
:101B90008F77809380000895809180008F7DF9CFAA
:101BA00080918000877FF5CF84B58F7784BD0895BD
:101BB00084B58F7DFBCF8091B0008F778093B0008C
:101BC00008958091B0008F7DF9CF809190008F773C
:101BD000809390000895809190008F7DF9CF80913F
:101BE0009000877FF5CF8091A0008F778093A00031
:101BF00008958091A0008F7DF9CF8091A000877F0C
:101C0000F5CF809120018F778093200108958091F6
:101C100020018F7DF9CF80912001877FF5CFCF9371
:101C2000DF93282F30E0F901EB5CF84E8491F90145
:101C3000E25FF74ED491F901E853F84EC491CC23FA
:101C4000A1F081110E94A80DEC2FF0E0EE0FFF1F14
:101C5000EC56F84EA591B491EC91ED2381E090E023
:101C600009F480E0DF91CF91089580E090E0FACF11
:101C70001F93CF93DF93282F30E0F901EB5CF84EF0
:101C80008491F901E25FF74ED491F901E853F84EDF
:101C9000C491CC23A9F0162F81110E94A80DEC2F1E
:101CA000F0E0EE0FFF1FE255F84EA591B4918FB70B
:101CB000F894EC91111108C0D095DE23DC938FBF0E
:101CC000DF91CF911F910895DE2BF8CFCF93DF9353
:101CD00090E0FC01E25FF74E24918853984EFC019E
:101CE00084918823C9F090E0880F991FFC01E55E7C
:101CF000F84EA591B491FC01E255F84EC591D491EE
:101D000061110DC09FB7F8948C91209582238C931C
:101D10008881282328839FBFDF91CF910895623067
:101D200051F49FB7F8943C91822F809583238C9334
:101D3000E8812E2BEFCF8FB7F894EC912E2B2C93BC
:101D40008FBFEACF1F93CF93DF93182FEB0161E092
:101D50000E94660E209739F460E0812FDF91CF91C9
:101D60001F910C94380ECF3FD10511F461E0F5CFEF
:101D7000E12FF0E0EB5CF84EE491E150E23108F045
:101D8000B3C0F0E08827E853F14F8F4F0C941970DF
:101D9000DA0EE20EE70EF10EFB0E740F050F0D0FBB
:101DA000150F1F0F290F330F420F4C0F740F560FD3
:101DB000600F6A0F84B5806884BDC7BDDF91CF9185
:101DC0001F91089584B5806284BDC8BDF7CF80910E
:101DD0008000806880938000D0938900C093880041
:101DE000EDCF80918000806280938000D0938B0043
:101DF000C0938A00E3CF8091800088608093800048
:101E0000D0938D00C0938C00D9CF8091B0008068B2
:101E10008093B000C093B300D1CF8091B0008062B6
:101E20008093B000C093B400C9CF809190008068C7
:101E300080939000D0939900C0939800BFCF809179
:101E40009000806280939000D0939B00C0939A0092
:101E5000B5CF80919000886080939000D0939D00D2
:101E6000C0939C00ABCF8091A00080688093A000BD
:101E70008091A0008F7B8093A000D093A900C09395
:101E8000A8009CCF8091A00080628093A000D09396
:101E9000AB00C093AA0092CF8091A000886080938D
:101EA000A000D093AD00C093AC0088CF80912001FA
:101EB000806880932001D0932901C09328017ECFB0
:101EC00080912001806280932001D0932B01C093E8
:101ED0002A0174CF80912001886080932001D093E3
:101EE0002D01C0932C016ACFC038D1050CF03ECF34
:101EF00033CF3FB7F8948091D9059091DA05A0913E
:101F0000DB05B091DC0526B5A89B05C02F3F19F075
:101F10000196A11DB11D3FBFBA2FA92F982F882769
:101F2000BC01CD01620F711D811D911D42E0660F44
:101F3000771F881F991F4A95D1F708958F929F9216
:101F4000AF92BF92CF92DF92EF92FF926B017C0132
:101F50000E94790F4B015C01C114D104E104F1042A
:101F6000B9F00E94790F681979098A099B09683EBE
:101F700073408105910580F321E0C21AD108E10880
:101F8000F10888EE880E83E0981EA11CB11CE4CFF6
:101F9000FF90EF90DF90CF90BF90AF909F908F9089
:101FA00008952FB7F8946091D5057091D60580916A
:101FB000D7059091D8052FBF0895CF93DF93C09197
:101FC000A70BD091A80B209751F120E030E0A90198
:101FD0006091A30B7091A40B8091A50B9091A60B1F
:101FE0000E9458700E94C4716E5F7F4F24976C17D7
:101FF0007D07ACF470939A0B6093990B0E94D10FFC
:10200000605E714B8F4F9F4F60939B0B70939C0B47
:1020100080939D0B90939E0BDF91CF91089510922A
:102020009B0B10929C0B10929D0B10929E0BF4CF69
:10203000CF93DF93EC016C81617088810E94380E30
:102040006C81669561708A81DF91CF910C94380E16
:10205000FC01A4A5B5A5109749F0ED91FC9111974D
:102060000190F081E02DCD011995089582A593A5E9
:10207000009739F0DC01ED91FC910190F081E02DA9
:10208000F3CF80E00895CF92DF92EF92FF920F930B
:102090001F93CF93DF9300D000D01F921F92CDB734
:1020A000DEB77C0118861F8285E08983F70182A94B
:1020B0008A8360686B835C834D833E832F8367E0F4
:1020C000CE0101960E945E0C8887F70182A593A538
:1020D000892B31F080A991A9009711F00E94181066
:1020E0008E010F5F1F4F6E01F9E0CF0ED11CF8017A
:1020F00061918F01C7010E942810F701218932895F
:10210000820F932F911D928B818B0C151D0579F7F2
:1021100062E070E080E090E00E949E0F28960FB68B
:10212000F894DEBF0FBECDBFDF91CF911F910F910D
:10213000FF90EF90DF90CF900895FC01A4A5B5A586
:10214000109741F0ED91FC9111970284F385E02DF9
:10215000CD01199482A593A5009739F0DC01ED918A
:10216000FC910284F385E02DF4CF90E080E00895A7
:10217000FC01A4A5B5A5109741F0ED91FC91119734
:102180000084F185E02DCD01199482A593A50097D7
:1021900039F0DC01ED91FC910084F185E02DF4CF64
:1021A00090E080E008952F923F924F925F926F925D
:1021B0007F928F929F92AF92BF92CF92DF92EF92D7
:1021C000FF920F931F93CF93DF93CDB7DEB7619745
:1021D0000FB6F894DEBF0FBECDBF1C011C861B8658
:1021E00085E08987F10182A98A876B8763E0CE0148
:1021F00009960E945E0C8C87F2E0F98B9E01235FAA
:102200003F4F3E872D87F10184A595A5009761F08A
:102210000E947C0DC1010E94B810181619067CF4AA
:10222000C1010E949D10F6CF82A593A5892B91F341
:1022300080A991A9009771F30E941810EBCFF101CA
:1022400086A597A5009741F061E00E94380E61E0F5
:10225000F10186A50E94660E8E01075F1F4FF801EF
:1022600061918F01C1010E9428102D853E850217C2
:102270001307A9F7F10186A597A5009719F062E069
:102280000E94660E62E070E080E090E00E949E0F87
:102290000E94D10F2B013C018985CB84D12CF12CDC
:1022A000E12CDD24DA94E82A812C912C540105E0FC
:1022B00010E00E94D10F641575058605970531F071
:1022C0000150110909F474C02B013C01C1010E94A5
:1022D0009D1097FD0FC07A2D692D582D44274C0174
:1022E0009924092C000CAA08BB08842A952AA62A3E
:1022F000B72ABB24C814D904EA04FB04D1F626018A
:102300003701812C912C54010E94D10F6B017C016B
:1023100025E030E0388B2F8710E00E94D10F6C153C
:102320007D058E059F0549F0EF85F8893197F88B7B
:10233000EF87EF2BE9F16B017C01C1010E949D1039
:10234000DC0197FD1CC09201A301B401C50108E0A6
:102350000E942170BB27EB2FEE0FEE0B422E4A2A74
:10236000532E5B2A6E2E642A7E2E752A8E2E862A86
:102370009E2E972AAE2EA82ABE2EB92A1F5F153090
:1023800061F6F10186A597A5009741F061E00E94F2
:10239000380E61E0F10186A50E94660EC1010E941F
:1023A000B8101816190664F4C1010E949D10F6CFEA
:1023B000412C512C612C712C812C912CA12CB12CF5
:1023C000F10184A595A5009711F00E94660D62E0C9
:1023D00070E080E090E00E949E0FF101178A920168
:1023E000A301B401C50108E30E943C702983920156
:1023F000A301B401C50100E30E943C702A8392014D
:10240000A301B401C50108E20E943C702B83920134
:10241000A301B401C50100E20E943C702C8392012B
:10242000A301B401C50108E10E943C702D83920113
:10243000A301B401C50100E10E943C702E8392010A
:10244000A301B401C50108E00E943C702F834886B7
:1024500067E0CE0101960E945E0C481202C0411056
:1024600011C081E0F101878BF989F13019F021E089
:10247000298BC9CE412C512C612C712C812C912C93
:10248000A12CB12C9201A301B401C50108E00E9466
:102490003C70B901CA0161960FB6F894DEBF0FBE59
:1024A000CDBFDF91CF911F910F91FF90EF90DF9003
:1024B000CF90BF90AF909F908F907F906F905F90E4
:1024C0004F903F902F900895DC01ED91FC91028098
:1024D000F381E02D6FE61994262F2F70DC0195967D
:1024E0006C919597607F622B95966C9395979296D9
:1024F0002D913D914D915C919597ED91FC910190BD
:10250000F081E02D6CE61994DC0194962C9194975F
:1025100060FB21F994962C93949792962D913D917E
:102520004D915C919597ED91FC910190F081E02D9A
:102530006CE61994CF92DF92EF92FF92CF93BC0199
:1025400090E080E00E94BE6B25ED34E045E352E46C
:102550000E941F6C20E030E04AE754E40E94527170
:102560006B017C012AE037ED43EA5CE36091BF0B2D
:102570007091C00B8091C10B9091C20B0E9458705A
:10258000A70196010E941F6C26E636E646EA5EE346
:102590000E94527120E030E040E85FE30E945770F3
:1025A0000E94CB71C62F603108F06AC061E086EBF3
:1025B0009BE00E9484122AE037ED43EA5CE36091DD
:1025C000BF0B7091C00B8091C10B9091C20B0E9408
:1025D0005870A70196010E941F6C2CEE31E548E36C
:1025E0005EE30E94527120E030E040E85FE30E9429
:1025F00057700E94CB71C62FC03208F0CFE19C2FDC
:102600009F718091B90B807E892B8093B90B2091AB
:10261000B80B382F8091BA0B482F4F7050E060E113
:1026200086EB9BE00E9443106C2F70E090E080E00E
:102630000E94C06B2091C30B3091C40B4091C50B1D
:102640005091C60B0E941F6C0E94CB71862F8F7118
:102650006091B80B607E682B6093B80B262F309189
:10266000B90B8091BA0B482F4F7050E060E186EBB8
:102670009BE0CF91FF90EF90DF90CF900C944310B0
:1026800060E086EB9BE00E948412B6CFDC0193965B
:102690008C91939760FB87F993968C93939761FB4A
:1026A000882780F994966C9194976E7F682B949606
:1026B0006C93949792962D913D914D915C91959745
:1026C000ED91FC9111970190F081E02D6CE6CD0128
:1026D0001994DC0192968C91929760FB87F99296FF
:1026E0008C9392976695677093968C919397887F59
:1026F000682B93966C93939792962D913D914D9163
:102700005C919597ED91FC9111970190F081E02DEE
:102710006CE6CD0119946770262F2295207FDC018D
:1027200092966C9192976F78622B92966C93929797
:1027300092962D913D914D915C919597ED91FC91E3
:102740000190F081E02D6CE61994DC01ED91FC9193
:102750000280F381E02D6CE619940E94A513892F65
:102760008F7008950E94A5138695817008950E9428
:10277000A513771F7727771F8170880F872B089500
:102780000E94A513862F881F8827881F7770770FD0
:10279000872B08950E94A513862F82958770089530
:1027A000CF93DF9310924A04C0911902D0911A027C
:1027B0002F971C161D0614F4D0E0C0E0D093A80B90
:1027C000C093A70B0E94DD0FD093A80BC093A70B5B
:1027D0000E94DD0F1092A90B2C98DF91CF910895E4
:1027E000BC012091090430910A04409109045091E0
:1027F0000A042417350731F481E02617370709F05A
:1028000080E008959A01F1CF80914E0480FF28C0A6
:1028100089988FEF8093BF0380914E04869580FF47
:1028200022C08F9A8FEF8093C00380914E048695CB
:10283000869580FF1BC080910B01809582708093EC
:1028400009018FEF8093C10380914E048695869590
:10285000869580FF12C016988FEF8093C20308956B
:10286000899A81E0D7CF8F9881E0DDCF80910B01ED
:1028700082708093090181E0E5CF169A81E0EDCF67
:102880002091190230911A022F50310982179307B3
:102890000CF49C013093A80B2093A70B0C94DD0F34
:1028A000AF92BF92CF92DF92EF92FF920F931F935E
:1028B000CF93DF93C9E4DBE001E916E089E5A82EB8
:1028C0008BE0B82EC12CD12C7601C39469917991FB
:1028D000899199910E94BE6B288939894A895B89BF
:1028E0000E941F6C0E94CB71F801619371938193D8
:1028F00091938F01C616D706E806F90610F46B010E
:102900007C01AC16BD0611F76FEF7FEFCB01A7017D
:1029100096010E94966F2093A1063093A2064093E1
:10292000A3065093A406DF91CF911F910F91FF90C2
:10293000EF90DF90CF90BF90AF900895CF92DF924D
:10294000EF92FF9280913706882309F457C0C09018
:102950003306D0903406E0903506F090360620E03D
:1029600030E0A901C701B6010E94B96B882309F4C0
:1029700045C020E030E040E05FE3C701B6010E94BF
:102980001F6C9B01AC010E941F6C2BED3FE049E4E2
:1029900050E40E941F6C9B01AC0160E070E080E895
:1029A0009FE30E9452716B017C01C0922306D0927A
:1029B0002406E0922506F092260660911B02709193
:1029C0001C02072E000C880B990B0E94C06B2AE09A
:1029D00037ED43E25CE30E941F6CA70196010E9461
:1029E0001F6C609342027093430280934402909361
:1029F0004502FF90EF90DF90CF900895C12CD12C2D
:102A000080E8E82E8FE3F82ED0CF8091F50B9091DF
:102A1000F60B891B8F7019F490E080E00895909177
:102A2000F20B992351F0833030F48FEF890F19F0B6
:102A30008093F20BF1CF1092F20B8091F60B27E40A
:102A4000829FC00111248854994FFC01208120FDF0
:102A5000E3CF2091F60B2F5F2F702093F30B309173
:102A6000F60B2091F40B321304C02091F30B20934A
:102A7000F40B089590916F0081E091FD02C080E019
:102A8000089590916F009D7F90936F000895EFE6F9
:102A9000F0E08081826080830895CF93C82F0E94E8
:102AA0003A1594E0C99F90011124F901E45FFB4FAE
:102AB000285E3B4FD9014D915D916D917C91408392
:102AC00051836283738391E090930B04882319F000
:102AD000CF910C944715CF910895CF92DF92EF924A
:102AE000FF92CF93DF93C82F0E943A1594E0C99FBD
:102AF000E0011124FE01E85EFB4FC080D180E2803E
:102B0000F38081110E944715C955D94FC701B601FD
:102B10000E94C06B288139814A815B810E941F6CB1
:102B2000DF91CF91FF90EF90DF90CF900895CF92FB
:102B3000DF92EF92FF92CF93DF93C82F0E943A1556
:102B400094E0C99FE0011124FE01E45FFB4FC080C7
:102B5000D180E280F38081110E944715C955D94F79
:102B6000C701B6010E94C06B288139814A815B810F
:102B70000E941F6CDF91CF91FF90EF90DF90CF907C
:102B80000895CF93DF9324E0829FC0011124EC01CC
:102B9000C35CD44FFC01E95DF94F845B994FDC01C4
:102BA0002D913D914D915C916081718182819381E4
:102BB0000E945870688379838A839B83DF91CF91C9
:102BC0000895CF92DF92EF92FF921F93CF93DF93FE
:102BD00020911D02222309F48DC0EC0110916106A1
:102BE00010FF2CC0C0901E02D0901F02E090200267
:102BF000F0902102288139814A815B81C701B601A9
:102C00000E94B872181624F4C882D982EA82FB8224
:102C1000C0902A02D0902B02E0902C02F0902D025E
:102C2000288139814A815B81C701B6010E94B96B55
:102C300087FF04C0C882D982EA82FB8211FF2CC0C0
:102C4000C0902202D0902302E0902402F09025024E
:102C50002C813D814E815F81C701B6010E94B8720F
:102C6000181624F4CC82DD82EE82FF82C0902E0200
:102C7000D0902F02E0903002F09031022C813D8103
:102C80004E815F81C701B6010E94B96B87FF04C006
:102C9000CC82DD82EE82FF8212FF2CC0C090260221
:102CA000D0902702E0902802F090290228853985EB
:102CB0004A855B85C701B6010E94B872181624F4D4
:102CC000C886D986EA86FB86C0903202D09033024D
:102CD000E0903402F0903502288539854A855B857D
:102CE000C701B6010E94B96B87FF04C0C886D986A8
:102CF000EA86FB86DF91CF911F91FF90EF90DF90E6
:102D0000CF900895CF92DF92EF92FF928091BE0311
:102D1000659B62C081608093BE03909103018091A6
:102D2000BE0391FF5BC082608093BE038091BE03AF
:102D30004B9956C084608093BE03C090FC03C0FED4
:102D400010C080914E0480FF0CC08091BE0380FFB4
:102D500008C08091D30581608093D30580E00E94F4
:102D60004D15D12CF12CE12CD701C601B695A795B4
:102D70009795879580FF11C080914E04869580FFBE
:102D80000CC08091BE0381FF08C08091D305826092
:102D90008093D30581E00E944D1582E0F694E7947C
:102DA000D794C7948A95D1F7C0FE1CC080914E0479
:102DB0008695869580FF16C08091BE0382FF12C063
:102DC0008091D30584608093D30582E0FF90EF90DB
:102DD000DF90CF900C944D158E7F9DCF8D7FA4CF2B
:102DE0008B7FA9CFFF90EF90DF90CF9008950F9346
:102DF0001F9380914706813019F50E94D10F0091F1
:102E0000BA031091BB032091BC033091BD03601B3A
:102E1000710B820B930B28EE33E040E050E00E94F0
:102E2000966F6091B6037091B7038091B80390914B
:102E3000B903620F731F841F951F1F910F9108958F
:102E40006091430670914406809145069091460634
:102E5000D6CF109247061092BA031092BB0310927D
:102E6000BC031092BD0310924306109244061092C8
:102E70004506109246061092B6031092B7031092C0
:102E8000B8031092B9030895809147068130F1F09C
:102E90008230C9F40E94F7166093B6037093B703AB
:102EA0008093B8039093B90381E0809347060E9412
:102EB000D10F6093BA037093BB038093BC039093CC
:102EC000BD0381E008950E942917EECF80E00895A8
:102ED000809147068150823070F4109247060E941C
:102EE000D10F6093430670934406809345069093F8
:102EF000460681E0089580E00895282F9091780695
:102F0000833021F495FD0FC094FD0FC0892F90E010
:102F1000B0E0A0E004C0B695A795979587952A954F
:102F2000D2F78170089581E0089580E008952FEB35
:102F3000280F2A3108F042C0E22FF0E080914806C5
:102F400090914906A0914A06B0914B0604C0B695EF
:102F5000A795979587952A95D2F780FD02C0817035
:102F60000895E65EFC4FE081EE2329F180912B0B62
:102F700090912C0BE80FF92FF11D808190ED980FA7
:102F80009A3030F08E3251F4818180538A3098F437
:102F9000F0936306E093620681E008958D3211F0AC
:102FA0008B3249F4818190ED980F9A3088F38E32FC
:102FB00011F48281EACFF0E0E0E0EACF80E008950A
:102FC0000E949717882341F081E02091620630919A
:102FD0006306232B09F480E00895129A08955F9AFE
:102FE000809160068E7F809360068A9A8091600649
:102FF0008D7F809360068091080180958170809319
:103000000601809160068B7F809360060C94ED171B
:103010009091C00095FFFCCF8093C6000895CF9398
:10302000DF93EC01FE0184912196882319F00E9420
:103030000818F8CFDF91CF910895CF9388E49DE0F1
:103040000E940F188AE50E94081888E39DE00E94FC
:103050000F1886EB9BE00E946412611571058105D3
:10306000910549F06F3F7F4F8F4F9F4FD9F0C0E0E0
:1030700089E29DE00CC0C2E08CE29DE00E940F1846
:1030800080E29DE0C23019F0C1E084E29DE00E9440
:103090000F188AE00E94081881E0C11101C080E089
:1030A000CF910895C1E0E8CFCF93C82FCB010E9404
:1030B0000F188CE69DE00E940F1887E096E0CC2365
:1030C00011F08CE096E00E940F188AE0CF910C94EA
:1030D000081888E296E00E940F188CB162E276E050
:1030E00085FB882780F90E945418809103016CE1C8
:1030F00076E0869581700E94541889B183FB8827F9
:1031000080F966E176E091E089270C9454180F93DA
:103110001F93CF93DF938B010E940F18E8018991D1
:10312000882319F00E940818FACFDF91CF911F91E0
:103130000F91089589EE93E00C940F18C82F0E9408
:10314000D0130E949A188FE69DE00E940F1889EE16
:1031500093E030E6019729F0232F2A950000E9F744
:10316000F9CFF89489EE93E038EE019729F0232FF8
:103170002A950000E9F7F9CF0E94D013CC2321F063
:103180000E94EF17A895FECF0E94ED17FBCF83EEAC
:1031900093E00C940F180E94C71860912B0B70914C
:1031A0002C0B81EF9CE00E9487188EEE9CE00C9423
:1031B0000F180F931F93CF93811113C0C42F8B014E
:1031C0000E94C71884E394E00E940F18C8010E946F
:1031D0000F18CC2331F08AE0CF911F910F910C94FE
:1031E0000818CF911F910F91089580913403909109
:1031F00035032FEF3FEF981751F0E92FF0E0EC5C2B
:10320000FC4F228130E09F5F9F7790933503C90187
:1032100008958F929F92AF92BF92CF92DF92EF92DA
:10322000FF920F931F93CF93DF93B0E4A0E06A2F38
:1032300070E0AB014B0F511D55954795411119C0D9
:10324000E1E9FDE065917491072E000C880B990B64
:103250000E94C06BDF91CF911F910F91FF90EF9073
:10326000DF90CF90BF90AF909F908F900895B42F34
:10327000E0CF4A1711F0B41303C0EDE8FEE0E2CF4F
:103280009A0121503109220F331F220F331FF901F8
:10329000E157F24FE590F490F901ED56F24FC591E8
:1032A000D4918E159F051CF3A42FC817D9070CF4D1
:1032B000BECFF901EF56F24F05911491F901EB568B
:1032C000F24FC590D490BC016E197F09072E000CF7
:1032D000880B990B0E94C06B4B015C01B601601B0F
:1032E000710B072E000C880B990B0E94C06B9B0181
:1032F000AC01C501B4010E941F6C4B015C01BE0111
:103300006E197F09072E000C880B990B0E94C06B69
:103310009B01AC01C501B4010E9452716B017C019B
:10332000B801110F880B990B0E94C06B9B01AC0177
:10333000C701B6010E9458708DCFCF93DF93CFE9BC
:10334000DBE08A819B810E9409196C837D838E83D7
:103350009F83A89510922206DF91CF910895CF9276
:10336000DF92EF92FF920F931F93CF93DF93CDB72E
:10337000DEB7A0970FB6F894DEBF0FBECDBF6115C4
:1033800071058105910579F100E0C42ED12CF12C55
:10339000E12CA70196010E94966F11E0100FE1E069
:1033A000F0E0EC0FFD1FE00FF11D07FDFA956083C3
:1033B000B901CA01012F611571058105910549F710
:1033C000115010F1E1E0F0E0EC0FFD1FE10FF11DF5
:1033D00017FDFA95908187E39A3008F480E3890F0E
:1033E0000E940818EDCF80E3A0960FB6F894DEBFD8
:1033F0000FBECDBFDF91CF911F910F91FF90EF9046
:10340000DF90CF900C940818A0960FB6F894DEBF0A
:103410000FBECDBFDF91CF911F910F91FF90EF9025
:10342000DF90CF900895CF92DF92EF92FF926B01E1
:103430007C01F7FE0BC08DE20E940818F094E09426
:10344000D094C094C11CD11CE11CF11C4AE0C701FE
:10345000B601FF90EF90DF90CF900C94AF19CF930F
:10346000DF93EC018091980B813089F40E949A18C7
:10347000CE010E940F1881E59DE00E940F1860E0C8
:1034800070E0CB010E94131A8AE00E9408180E9483
:10349000D0138091970B811109C081E08093970B25
:1034A00080E88093980B80E00E949E18DF91CF9176
:1034B00008952F923F924F925F926F927F928F92D8
:1034C0009F92AF92BF92CF92DF92EF92FF920F93B3
:1034D0001F93CF93DF93CDB7DEB72F970FB6F89436
:1034E000DEBF0FBECDBF80912206811119C02F967D
:1034F0000FB6F894DEBF0FBECDBFDF91CF911F9105
:103500000F91FF90EF90DF90CF90BF90AF909F9082
:103510008F907F906F905F904F903F902F90089585
:103520000E949D190E94D10F2B013C01609119024C
:1035300070911A02072E000C880B990B0E94C06B29
:103540004B015C0120E030E0A9016091A30B709178
:10355000A40B8091A50B9091A60B0E945870A50119
:1035600094010E94B87218160CF4F4C16091A70B74
:103570007091A80B072E000C880B990B0E94C06B52
:103580006B017C0120913D0430913E0440913F0449
:10359000509140040E94B96B81117FC02091490471
:1035A00029835981523009F496C1533009F4CBC1B3
:1035B000513009F4D6C1C090A30BD090A40BE09079
:1035C000A50BF090A60B6091170270911802072EC0
:1035D000000C880B990B0E94C06BA70196010E94FA
:1035E000B96B87FF09C0A7019601C501B4010E940C
:1035F000B87218160CF469C060E06093A90B809152
:103600009B0B90919C0BA0919D0BB0919E0B0097F2
:10361000A105B10509F46BCFA3019201281B390B59
:103620004A0B5B0BDA01C901B7FD61CF20E030E046
:10363000A901C701B6010E9458706B017C0160911D
:10364000990B70919A0B90E080E00E94BE6B9B01F9
:10365000AC01C701B6010E94B96B87FFAFC16EEC28
:1036600078E08DED98E02F960FB6F894DEBF0FBE90
:10367000CDBFDF91CF911F910F91FF90EF90DF9021
:10368000CF90BF90AF909F908F907F906F905F9002
:103690004F903F902F900C942F1AC0923D04D092DF
:1036A0003E04E0923F04F092400431E0398320E090
:1036B00030E0A901C701B6010E94B87218160CF0DB
:1036C00019824981409349046CCF6091A70B709196
:1036D000A80B6115710509F4A0C1072E000C880B19
:1036E000990B0E94C06BA70196010E9457704B0175
:1036F0005C0120E030E040E251EC0E94B96B87FDB4
:103700008CC120E030E040E251E4C501B4010E94E8
:10371000B87218160CF495C180913C04811196C1C1
:103720008091340490913504A0913604B09137040F
:1037300089839A83AB83BC83209138043091390408
:1037400040913A0450913B042D833E834F83588728
:10375000A7019601609128047091290480912A04A0
:1037600090912B040E9457702091B20B3091B30BB3
:103770004091B40B5091B50B0E941F6C29813A8186
:103780004B815C810E94577020ED3CEC4CE45DE382
:103790000E941F6C29813A814B815C810E94587084
:1037A00069837A838B839C8360933404709335049C
:1037B00080933604909337048091AE0B9091AF0BB9
:1037C000A091B00BB091B10B89879A87AB87BC876A
:1037D000A50194016D817E818F8198850E9458702A
:1037E0008B018F879E8720E030E0A9010E94B96B92
:1037F00087FD37C129853A854B855C8560E070E09F
:103800008FE793E40E9452716D837D871C019801BC
:103810004F855E850E94B96B87FF04C00D811D85B1
:103820002F863E86C801AF85BE858093380490936D
:103830003904A0933A04B0933B042091AA0B309131
:10384000AB0B4091AC0B5091AD0BC501B4010E9484
:103850001F6C4B015C0180922C0490922D04A0926D
:103860002E04B0922F0498014F855E8569857A8574
:103870008B859C850E941F6C9B01AC0120933004BA
:10388000309331044093320450933304C501B401A2
:103890000E94587029813A814B815C810E94587046
:1038A00020E030E0A9010E9458704B015C0120E04B
:1038B00030E0A9010E94B96B87FDB2C020E030E082
:1038C0004FE753E4C501B4010E94B87218160CF01A
:1038D000B1C06FE7A6C0C090A30BD090A40BE0903E
:1038E000A50BF090A60B80913D0490913E04A09111
:1038F0003F04B091400489839A83AB83BC8320E06A
:1039000030E040E850E469817A818B819C810E949B
:103910005770A70196010E94B96B18160CF03FC0B2
:103920000E94D10FC0904504D0904604E090470417
:10393000F09048046C197D098E099F0997FD3BCED4
:1039400083E0809349046EEA78E08EEB98E00E9471
:103950002F1A31CE6EEA78E08EEB98E00E942F1A93
:1039600005CEC090A30BD090A40BE090A50BF090D7
:10397000A60B20913D0430913E0440913F045091AC
:10398000400429833A834B835C83C701B6010E94BC
:10399000B96B87FD18CE82E080934904B0CF0E94B6
:1039A000D10F605C73468F4F9F4F609345047093B7
:1039B00046048093470490934804FDCDA090A70B44
:1039C000B090A80BA114B104F9F0C701B6010E9490
:1039D000C4716E5F7F4F34E0A31AB1086A157B058E
:1039E0009CF470939A0B6093990B0E94D10F605EC8
:1039F000714B8F4F9F4F60939B0B70939C0B8093E9
:103A00009D0B90939E0B73CD10929B0B10929C0B71
:103A100010929D0B10929E0B6ACD81E080933C0426
:103A200060E0C0922804D0922904E0922A04F09227
:103A30002B04E3CDC501B4010E94C471759567954F
:103A4000F0CF81E080933C046FE7EBCF10923C0411
:103A50001D821E821F82188619821A821B821C8276
:103A600077CE00E010E01F861E86DCCECF92DF927C
:103A7000EF92FF926B017C0183E3C816D104E1044D
:103A8000F10470F082E3C81AD108E108F10862E39A
:103A900070E080E090E00E949E0F0E94591AECCFE7
:103AA000C701B6010E949E0FFF90EF90DF90CF906C
:103AB0000C94591A80915806882331F062E070E026
:103AC00080E090E00C94361D0895CF92DF92EF9243
:103AD000FF92CF93DF93EC01C880D980EA80FB800E
:103AE00084E696E00E940F18C701B6010E94131ADF
:103AF000CC80DD80EE80FF808CE09DE00E940F187E
:103B0000C701B6010E94131AC884D984EA84FB84D1
:103B100088E09DE00E940F18C701B6010E94131AA9
:103B20008AE0DF91CF91FF90EF90DF90CF900C94DF
:103B30000818CF93DF93EB010E940F18BE01DD0F31
:103B4000880B990BDF91CF910C94131A8F929F924F
:103B5000AF92BF92CF92DF92EF92FF92CF936B0121
:103B60007C01B42E20E030E0A9010E94B96B87FFF0
:103B700007C08DE20E940818F7FAF094F7F8F09465
:103B8000C0E060E070E080E09FE3CB1541F02DECF9
:103B90003CEC4CEC5DE30E941F6CCF5FF6CF9B01C9
:103BA000AC01C701B6010E9458706B017C010E94F4
:103BB000CB714B015C014AE00E94AF19CC2391F11B
:103BC000C501B4010E94BE6B9B01AC01C701B601E7
:103BD0000E9457706B017C018EE20E940818C15050
:103BE00008F120E030E040E251E4C701B6010E9454
:103BF0001F6C4B015C010E94C4716B01770FEE08D2
:103C0000FF08C701B6010E94131AC701B6010E943E
:103C1000C06B9B01AC01C501B4010E9457706B01E0
:103C20007C01DDCFCF91FF90EF90DF90CF90BF90E0
:103C3000AF909F908F900895CF92DF92EF92FF9276
:103C40006A017B010E940F1842E0C701B601FF9094
:103C5000EF90DF90CF900C94A61D8823A9F10E94CD
:103C6000C71840915D0B50915E0B60915F0B709196
:103C7000600B89E19DE00E941C1E4091610B5091F8
:103C8000620B6091630B7091640B86E19DE00E9472
:103C90001C1E4091650B5091660B6091670B7091F3
:103CA000680B83E19DE00E941C1E4091690B5091BE
:103CB0006A0B60916B0B70916C0B80E19DE00E9430
:103CC0001C1E8AE00C94081880E20E940818C9CFD4
:103CD0004F925F926F927F928F929F92AF92BF921C
:103CE000CF92DF92EF92FF920F931F93CF93DF93C8
:103CF000CDE2DBE04C845D846E847F840DE31BE0C9
:103D0000F80124813581468157816C817D818E81C6
:103D10009F810E9458704B015C01F801208531851C
:103D200042855385688579858A859B850E94587070
:103D30006B017C01F80120813181428153816881CE
:103D400079818A819B810E945870AB01BC018BE60E
:103D500096E00E941C1EB501A4018CE09DE00E942B
:103D60001C1EB701A60188E09DE00E941C1EB30145
:103D7000A20184E09DE0DF91CF911F910F91FF9010
:103D8000EF90DF90CF90BF90AF909F908F907F90FB
:103D90006F905F904F900C941C1ECF93DF93CDB724
:103DA000DEB72C970FB6F894DEBF0FBECDBF0E94D2
:103DB000681E0E943A159CE0E8E1F4E0DE011196ED
:103DC00001900D929A95E1F781110E944715CE015D
:103DD00001960E94651D2C960FB6F894DEBF0FBEAB
:103DE000CDBFDF91CF9108958F929F92AF92BF92F6
:103DF000CF92DF92EF92FF920F931F93CF93C82F32
:103E00000FE91BE0F80160857185072E000C880B17
:103E1000990B0E94C06B6B017C0120E030E0A9018E
:103E2000F80164817581868197810E9458704B01E9
:103E30005C0180E20E94081884E50E9408188AE369
:103E40000E94081842E0C501B4010E94A61DB701F6
:103E5000A6018CEA96E00E941C1E62E070E080E001
:103E600090E00E949E0F87E1C802F0011124E15604
:103E7000F44F628570E08FEA96E0CF911F910F9129
:103E8000FF90EF90DF90CF90BF90AF909F908F907A
:103E90000C94991D0F931F93CF93DF93C82FD1E0FC
:103EA000D827811102C00E94C71880EF95E00E94B8
:103EB0000F188AEE95E00E940F188AE00E940818F9
:103EC0008AE00E94081810913706C11112C00E94A2
:103ED000C71884E394E00E940F1887ED95E00E94D4
:103EE0000F18112309F4D7C18AE00E9408180E9414
:103EF000C718409133065091340660913506709191
:103F0000360683EC95E00E941C1E8AE00E94081889
:103F1000111108C0C11102C00E94C71888EB95E0BA
:103F20000E940F1841E068EA75E08C2F0E94D918B2
:103F30008D2F0E942D1E41E06BE875E08C2F0E94B2
:103F4000D918C11102C00E94C71840916D0B509141
:103F50006E0B60916F0B7091700B82E895E00E9480
:103F60001C1E4091710B5091720B6091730B7091FC
:103F7000740B86E19DE00E941C1E4091750B5091D0
:103F8000760B6091770B7091780B83E19DE00E9436
:103F90001C1E4091790B50917A0B60917B0B7091B4
:103FA0007C0B80E19DE00E941C1E8AE00E940818A4
:103FB00041E061E675E08C2F0E94D918C11102C062
:103FC0000E94C7186091490B70914A0B80914B0B6E
:103FD00090914C0B0E94BE6BAB01BC0188E595E053
:103FE0000E941C1E60914D0B70914E0B80914F0BE7
:103FF0009091500B0E94BE6BAB01BC0186E19DE02D
:104000000E941C1E6091510B7091520B8091530BBA
:104010009091540B0E94BE6BAB01BC0183E19DE00B
:104020000E941C1E6091550B7091560B8091570B8E
:104030009091580B0E94BE6BAB01BC0180E19DE0EA
:104040000E941C1E8AE00E94081841E06FE075E0A3
:104050008C2F0E94D918C11102C00E94C71840912C
:104060007D0B50917E0B60917F0B7091800B86E0F1
:1040700095E00E941C1E4091810B5091820B609133
:10408000830B7091840B86E39AE00E941C1E409182
:10409000850B5091860B6091870B7091880B83E3A1
:1040A0009AE00E941C1E8AE00E94081841E062EB20
:1040B00074E08C2F0E94D918C11102C00E94C71849
:1040C0006091590B70915A0B80915B0B90915C0B36
:1040D0000E94BE6BAB01BC0189EA94E00E941C1EE9
:1040E0004091890B50918A0B60918B0B70918C0BD6
:1040F0008DE39CE00E941C1E40918D0B50918E0B15
:1041000060918F0B7091900B83E39AE00E941C1ECC
:1041100040917D0650917E0660917F0670918006E9
:1041200086EA94E00E941C1E8AE00E94081841E082
:1041300069E974E08C2F0E94D918C11102C00E9455
:10414000C718409127065091280660912906709162
:104150002A0680E994E00E941C1E40912B06509193
:104160002C0660912D0670912E0686E19DE00E943E
:104170001C1E40912F0650913006609131067091BF
:10418000320683E19DE00E941C1E8AE00E9408180E
:1041900041E062E874E08C2F0E94D918C11102C07E
:1041A0000E94C7184091AA0B5091AB0B6091AC0BC9
:1041B0007091AD0B89E794E00E941C1E2CEA35EC4F
:1041C00047E25EE36091AE0B7091AF0B8091B00B54
:1041D0009091B10B0E945271AB01BC0186E794E053
:1041E0000E941C1E2CEA35EC47E25EE36091B20BA4
:1041F0007091B30B8091B40B9091B50B0E941F6C22
:10420000AB01BC0189EC95E00E941C1E8AE00E9473
:10421000081841E06EE574E08C2F0E94D918C11196
:1042200002C00E94C71887E394E00E940F18009113
:10423000EF0B1091F00B83E19DE00E940F18B80185
:1042400090E080E04AE00E94AF198AE00E940818DE
:104250008AE00E94081841E068E474E08C2F0E9414
:10426000D91860E086EB9BE00E94D31062FD18C075
:10427000C11102C00E94C7188EE394E00E940F187B
:1042800083E19DE00E940F188AE0DF91CF911F919A
:104290000F910C9408188CEC95E00E940F1827CE13
:1042A000DF91CF911F910F9108958DE00E94081822
:1042B0008AE00C940818809134038093350388E0D9
:1042C00094E00E940F186091930B7091940B809171
:1042D000950B9091960B6F5F7F4F8F4F9F4F0E9472
:1042E000131A0E945521E0912106F0E0E55FF34F9B
:1042F0008081882339F089E997E00E940F188AE0CD
:104300000C9408180895CF93DF93EC010E949A183B
:10431000CE010E940F186091930B7091940B8091C5
:10432000950B9091960B0E94131A0E9455210E94A2
:10433000F5180196E1F70E945B211092920B109202
:10434000910BDF91CF9108950F931F93CF938C0121
:10435000C62F83E094E00E940F18C8010E940F1836
:104360008AE30E9408186C2F70E090E080E00E94C1
:10437000131ACF911F910F910C945521CF93DF9376
:10438000EC018991882319F00E940818FACFDF9177
:10439000CF910C9455214F925F926F927F928F92A2
:1043A0009F92AF92BF92CF92DF92EF92FF920F93C4
:1043B0001F93CF93DF93CDB7DEB76A970FB6F8940C
:1043C000DEBF0FBECDBF9A8F898F5B018A01DC01F2
:1043D000D6966D917D918D919C91D9970E94BE6BDF
:1043E0006B017C01F50120813181428153810E9462
:1043F0001F6C0E9436712B013C01D8012D913D911B
:104400004D915C91C701B6010E941F6C0E943671EC
:104410004B015C01C301B2010E94CB71698B7A8BA5
:104420008B8B9C8B683771058105910540F428E7DB
:1044300030E040E050E0298B3A8B4B8B5C8BC50120
:10444000B4010E94CB716D877E878F87988B683708
:1044500071058105910540F488E790E0A0E0B0E0A7
:104460008D879E87AF87B88BE98DFA8DEE5BFF4F06
:10447000208131814281538129833A834B835C833C
:10448000CA01B9010E94C06B2B013C0169897A897C
:104490008B899C890E94BE6B69877A878B879C87F2
:1044A00020E030E0A901C301B2010E94B96B88236A
:1044B00009F43BC1A7019601C701B6010E941F6C18
:1044C0004B015C0129853A854B855C85CA01B901A0
:1044D0000E941F6C9B01AC01C501B4010E94577082
:1044E0004B015C01A3019201C301B2010E9458700B
:1044F0009B01AC01C501B4010E9452710E9436714A
:104500000E94CB716D837E838F83988769817A81C6
:104510008B819C8190958095709561957F4F8F4F91
:104520009F4F0E94C06B4B015C016D857E858F851E
:1045300098890E94BE6B69837A838B839C8320E079
:1045400030E0A901C501B4010E94B96B882309F4C8
:10455000F0C029813A814B815C81CA01B9010E9476
:104560001F6C6D8B7E8B8F8B988FA7019601C70177
:10457000B6010E941F6C9B01AC016D897E898F89F9
:10458000988D0E9457706B017C01A5019401C501B3
:10459000B4010E9458709B01AC01C701B6010E9492
:1045A00052710E94FA71A98DBA8D95968D909D9049
:1045B000AD90BC909897750164012D813E814F812B
:1045C0005885C21AD30AE40AF50A0E94CB71C61AAA
:1045D000D70AE80AF90AF7FE6EC020E030E0A90128
:1045E000C301B2010E94B96B882309F4A6C0C501BA
:1045F000B4010E94BE6B6B017C01A3019201C30157
:10460000B2010E9458709B01AC01C701B6010E9423
:104610001F6C6B017C0129853A854B855C85CA013D
:10462000B9010E941F6C9B01AC01C701B6010E9439
:1046300057706B017C0129813A814B815C81CA01F1
:10464000B9010E941F6C9B01AC01C701B6010E9419
:1046500058706B017C0120E030E040E850E4C30179
:10466000B2010E941F6C9B01AC01C701B6010E9400
:1046700052710E9436716B017C0120E030E0A9018B
:104680000E94B87218161CF0C12CD12C7601C701FB
:10469000B6010E94CB716D837E838F8398878616C7
:1046A0009706A806B90620F48D829E82AF82B8864E
:1046B000C12CD12C76018D819E81AF81B885E98D89
:1046C000FA8D81A792A7A3A7B4A7C80ED91EEA1E88
:1046D000FB1EC5A6D6A6E7A6F0AA29893A894B896A
:1046E0005C8922AF33AF44AF55AFFE962D853E8532
:1046F0004F85588920833183428353836A960FB64E
:10470000F894DEBF0FBECDBFDF91CF911F910F9107
:10471000FF90EF90DF90CF90BF90AF909F908F90E1
:104720007F906F905F904F90089560E070E0CB01B4
:10473000E5CE60E070E0CB0134CF60E070E0CB010B
:1047400098CFFF920F931F93CF93DF931F92CDB714
:10475000DEB7F82E0FE81EE041E050E0B801CE01D0
:1047600001960E944E6B89818F1108C081E00F90E5
:10477000DF91CF911F910F91FF9008950F5F1F4F11
:104780008EE0043A180741F780E0F1CF0E9465738C
:104790004F925F926F927F92AF92BF92CF92DF92D1
:1047A000EF92FF920F931F93CF93DF9310923906EE
:1047B000109238062FE320937B0610927A0610920F
:1047C0007906109248061092490610924A061092F5
:1047D0004B069C01E90198812F5F3F4F9032D1F346
:1047E0009E34C9F4898190ED980F9A3020F08D3273
:1047F00011F08B3281F422969E012F5F3F4F88810A
:1048000080538A3008F470C09E012F5F3F4F88812B
:10481000803209F46BC0D0932C0BC0932B0B7E011C
:104820002FEFE21AF20A18816AE270E0C7010E94D3
:104830006A73009731F0FC01319780818032E1F397
:1048400011821D3421F0143511F01734F1F5F70100
:1048500080819FEFE91AF90A8032C9F380538A30C8
:10486000A0F510937B0690E080E0AAE0AF014F5FD7
:104870005F4F2081022E000C330B20533109A89F7B
:10488000B001A99F700D1124C901860F971FFA016D
:10489000208120532A3050F390937A068093790632
:1048A000DF0131962C912032D9F31D3459F58E3128
:1048B000910539F0ECF48731910519F08C319105AF
:1048C00009F5B0933906A0933806DF91CF911F9177
:1048D0000F91FF90EF90DF90CF90BF90AF907F90BF
:1048E0006F905F904F900895E90186CFE9018CCFDA
:1048F000853791053CF0873791051CF3803AE3E05A
:104900009E07F9F240E050E0BA0130E020E0C12C0F
:10491000D12C7601C394FD0131960C91002309F44A
:104920008CC00132F1F41D34E1F480329105C9F4F8
:10493000409348065093490660934A0670934B068D
:10494000F0933906E093380663E270E0CF010E94ED
:104950006A73009709F4B9CFFC011082B6CFDF016A
:10496000DACF01540A3108F063C0DF01BD90D0E214
:10497000AD2EBA1499F0A0EDAB0DAA3008F1AEE25D
:10498000BA120EC0A181A053AA30D0F02115310572
:1049900019F49F0121503109B12C16C0FD01E5CF5A
:1049A000ADE2AA2EBA1419F0ABE2BA12EFCFA18190
:1049B000B0EDBA0FBA3020F0AE3241F7A281E3CFAA
:1049C000BE2EBC1A309741F3A02FB0E0260137016C
:1049D00004C0440C551C661C771C0A95D2F7442968
:1049E000552966297729A65EBC4FBC92A081A154A7
:1049F000AA3108F4B4CFDF010191002309F48BCF71
:104A0000D0EDBD2EB00ED9E0AD2EAB14A0F7D3ED96
:104A1000BD2EB00EAA24A394AB1468F70B3259F341
:104A2000FD0131960C91003209F075CFDF01F8CF0E
:104A300021153105D9F69D01D9CF30933906209340
:104A40003806409348065093490660934A0670938F
:104A50004B063BCF8091620690916306009731F040
:104A60004AE050E070E060E00C94146960E070E0AF
:104A7000CB010895CF93DF93EB010E94E0178823C9
:104A800019F00E942A25EB01CE01DF91CF91089504
:104A90000E942A2597FD0CC00E942A256F3F7105B0
:104AA0008105910509F034F40E942A25862F089586
:104AB00080E008958FEF08950E94E01781110C9413
:104AC000482580E00895CF9384E50E94E017C0E078
:104AD0008823F9F00E944825C82F1816D4F40E94A4
:104AE000C7188DE40E9408186091790670917A06C3
:104AF000072E000C880B990B0E94131A6C2FCC0FF9
:104B0000770B80EF93E00E94991D8AE00E940818BD
:104B1000CFEF8C2FCF91089580916206909163061C
:104B2000892B41F00E94482591E0811101C090E05D
:104B3000892F089591E0FCCFCF93DF93C82FD62F14
:104B40000E94E017882321F0DF91CF910C948C25EF
:104B50008C2F0E949717811101C08D2FDF91CF916B
:104B600008950F931F93CF938091620690916306EF
:104B70000097E9F0FC018F01C1912C2F2F7D81F06E
:104B8000C53411F0C536B9F7F801108270E060E065
:104B90000E94B667F801C083CF911F910F910895CD
:104BA00070E060E0CF911F910F910C94B66760E0C8
:104BB00070E0CB01F1CF86E40E94971780934A04FE
:104BC000882351F00E94B125609308027093090276
:104BD00080930A0290930B0283E50E949717882323
:104BE00051F00E94B12560930402709305028093F6
:104BF00006029093070282E40E949717882351F0DF
:104C00000E94B1256093000270930102809302021A
:104C10009093030208958F929F92AF92BF92CF928A
:104C2000DF92EF92FF920F931F93CF9388E6E82EC7
:104C300086E0F82E0DE21BE09DE3C92E9BE0D92E05
:104C4000C0E088E58C0F0E94E017882309F47CC03F
:104C50000E94B1254B015C018C2F0E947D17882397
:104C600009F468C0F8012081318142815381C50176
:104C7000B4010E945870F70160837183828393832B
:104C8000CF5FF4E0EF0EF11C0C5F1F4F84E0C80E05
:104C9000D11CC330B1F685E40E94E017882309F4E3
:104CA0005EC00E94B1256B017C0183E00E947D17EC
:104CB000882371F02091390B30913A0B40913B0BD6
:104CC00050913C0BC701B6010E9458706B017C01EA
:104CD000C0927406D0927506E0927606F09277063E
:104CE00086E40E94E0178823C9F00E94B12520E0E5
:104CF00030E0A9010E94B872181684F40E94B12510
:104D000020E030E040E752E40E94527160933E029E
:104D100070933F028093400290934102CF911F9184
:104D20000F91FF90EF90DF90CF90BF90AF909F904A
:104D30008F900895F6012081318142815381C50110
:104D4000B4010E94577097CFF80180819181A281B0
:104D5000B381F70180839183A283B38391CF809144
:104D6000390B90913A0BA0913B0BB0913C0B809387
:104D7000740690937506A0937606B0937706B0CF2D
:104D80002F923F924F925F926F927F928F929F925B
:104D9000AF92BF92CF92DF92EF92FF920F931F9349
:104DA000CF93DF9300D000D01F921F92CDB7DEB714
:104DB0000E94D10F6B017C0100913A02098300230C
:104DC000F1F080917C068823D1F04091A7025091A8
:104DD000A8026091A9027091AA0297018601041BA2
:104DE000150B260B370BB901A80177FD1BC08330CB
:104DF00009F4D6C00CF0C5C081300CF0CAC01981CE
:104E0000212F30E0A8EEB3E00E94C36FC60ED71E7C
:104E1000E81EF91EC092A702D092A802E092A90251
:104E2000F092AA028091D105843008F074C080E627
:104E3000F82E01E08091D105843008F06CC080919B
:104E4000340390913503891B8F7709F464C00E9465
:104E5000F51897FDEFCF8A3019F08D3009F04DC16C
:104E6000109214038091910B9091920BFC01EC54E1
:104E7000FD4F1082892B09F498C01092920B10926A
:104E8000910B24EB32E03F832E83EE81FF818191F1
:104E9000803209F48DC08E3409F0CBC06EED73E022
:104EA0008E819F810E946F6B6C01892B49F06EE4AB
:104EB00070E08E819F8104960E946A73009711F4BE
:104EC0008E819F814AE050E070E060E001960E9490
:104ED0001469AB01BC014093B0025093B1026093DE
:104EE000B2027093B3028091930B9091940BA091B6
:104EF000950BB091960B0196A11DB11D481759074E
:104F00006A077B0709F457C0CD2809F054C08BEA23
:104F100093E00E9483210E94D10F6B017C0180915C
:104F20003A0690913B06A0913C06B0913D06009751
:104F3000A105B10509F40BC14091640650916506C5
:104F40006091660670916706840F951FA61FB71FB4
:104F500097018601081B190B2A0B3B0BD901C801CD
:104F6000B7FDF5C00E949A1860912B0B70912C0B25
:104F70008EEA92E00E9487188AE00E94081880E07A
:104F800087C0843009F03BCF0E94C7188DE692E0BD
:104F900004C00E94C7188CE992E00E940F182FCF1E
:104FA0000E94C71885E892E0F8CF0E94591A42CFB4
:104FB000FF83EE836ACF6AE270E08E819F810E9458
:104FC00085739C01009711F1982F4E81941B10E07E
:104FD000992341F09150EE81FF81E90FF11D80810D
:104FE0001827F6CF4AE050E070E060E0C901019672
:104FF0000E941469812E912CB12CA12C6815790581
:105000008A059B0531F08CE893E083CF82E693E03C
:1050100080CF8091B0029091B102A091B202B09184
:10502000B3028093930B9093940BA093950BB09342
:10503000960B8091980B8130C1F067E470E08E810F
:105040009F810E946A73009781F04AE050E070E00F
:1050500060E001960E941469643071058105910534
:1050600020F48BEE92E00E940F1862E872E08E81CD
:105070009F810E947573892B11F410923B0267E89F
:1050800072E08E819F810E947573892B19F481E0F3
:105090000E949E186CE872E08E819F810E94757359
:1050A000892B11F40E94D43E8091B4028B3309F411
:1050B000C1CE1091D1051A83143008F0BBCE1091E7
:1050C000AF021F9DC001112464EB72E08F5A9B4F09
:1050D0000E947E73E12FF0E0E55FF34F00831F5FD6
:1050E0001983143038F41093AF021A811F5F1093A4
:1050F000D105A0CE1092AF02F8CF90911403913059
:1051000009F498CE9430B0F0945090931403209109
:10511000910B3091920BA9014F5F5F4F5093920B0F
:105120004093910B2C543D4FF90180834F3551052D
:105130005CF480CE8C3531F49C5F909314039430F2
:1051400031F778CE8B3319F70093140373CE809127
:10515000360290913702A0913802B091390200973F
:10516000A105B10589F03091F50B2091F60B3217AE
:1051700009F4BFC00E94D10F609364067093650666
:1051800080936606909367068091150390911603AD
:10519000A0911703B091180397018601081B190B02
:1051A0002A0B3B0BD901C801B7FD5BC19091F50BF0
:1051B0008091F60B6091A606981749F0E091F60BE6
:1051C00017E4E19FF0011124E250F94F608170E093
:1051D00089E00E94A20E80914A04882309F434C118
:1051E0002090040230900502009106020887109179
:1051F00007021E836091A70B7091A80B6E5F7F4F13
:10520000072E000C880B990B0E94C06B9101A8011E
:105210000E94B96B87FD18C10091F60B09831A82B1
:105220001B821C821D828091F50B1981811709F464
:105230009AC0812F90E027E4289FF001299FF00D6C
:105240001124E854F94F458956896789708D452B9B
:10525000462B472B81F4418D528D638D748D452BE8
:10526000462B472B41F4458D568D678D70A1452BFC
:10527000462B472BC9F137E4389F8001399F100D29
:1052800011240854194FF80161817281838194813E
:105290000E9406734B015C01F80161A172A183A118
:1052A00094A10E94BE6B2B013C01F80165A176A17F
:1052B00087A190A50E94BE6B9B01AC01C301B20106
:1052C0000E945271A50194010E941F6C5B018C0128
:1052D0002A813B814C815D810E94B872181624F4AA
:1052E000AA82BB820C831D8389818F5F8F70898323
:1052F0009ACF409164065091650660916606709160
:105300006706840F951FA61FB71FA7019601281BCC
:10531000390B4A0B5B0BDA01C901B7FD21C0809143
:105320001903811131CF81E0809319035F9A809135
:1053300060068E7F809360068A9A809160068D7FDA
:1053400080936006809108018095817080930601AA
:10535000809160068B7F809360060E94ED1714CFCA
:105360001092190311CF2091080230910902409147
:105370000A0250910B026A817B818C819D810E947F
:105380001F6C910148855E810E9458705B018C0101
:1053900060900002709001028090020290900302DF
:1053A0009B01AC01B10188859E810E94B8721816DC
:1053B00064F09301A401B501C8010E94B8721816E7
:1053C0000CF49CC0150108871E838090AB0290905E
:1053D000AC02A090AD02B090AE02910148855E8112
:1053E000C501B4010E94B8721816E4F420E037ED4C
:1053F00043EA5CE3B10188859E810E941F6C2B010A
:105400003C0128E431EE4AE75FE3C501B4010E94A4
:105410001F6C9B01AC01C301B2010E9458701B01BB
:1054200088879E83C101A885BE818093AB0290933B
:10543000AC02A093AD02B093AE02B101CD010E94C7
:10544000C471CB010E944014F4E6CF0ED11CE11CC4
:10545000F11CC0921503D0921603E0921703F0924C
:1054600018030E94591A009142060983002309F487
:1054700049C00E94D10F00913E0610913F06209135
:10548000400630914106601B710B820B930B97FD18
:1054900039C00E94D10F6B017C011981212F30E0AE
:1054A000A8EEB3E00E94C36FC60ED71EE81EF91E19
:1054B000C0923E06D0923F06E0924006F09241062E
:1054C00080E00E94F41E8AE028960FB6F894DEBFB2
:1054D0000FBECDBFDF91CF911F910F91FF90EF9045
:1054E000DF90CF90BF90AF909F908F907F906F9004
:1054F0005F904F903F902F900C940818130188866E
:105500009E8263CF28960FB6F894DEBF0FBECDBF44
:10551000DF91CF911F910F91FF90EF90DF90CF908F
:10552000BF90AF909F908F907F906F905F904F90C3
:105530003F902F9008952F923F924F925F926F92DB
:105540007F928F929F92AF92BF92CF92DF92EF9213
:10555000FF920F931F93CF93DF93CDB7DEB7C15761
:10556000D1090FB6F894DEBF0FBECDBF4B015A0173
:1055700069016196FFAEEEAE619720915D0B3091AF
:105580005E0B40915F0B5091600BDC016D917D9142
:105590008D919C910E941F6C0E94C572A9966CAF60
:1055A0007DAF8EAF9FAFA9972091610B3091620BB9
:1055B0004091630B5091640BF40160817181828191
:1055C00093810E941F6C0E94C572AD966CAF7DAF37
:1055D0008EAF9FAFAD972091650B3091660B4091D8
:1055E000670B5091680BD5016D917D918D919C91C8
:1055F0000E941F6C0E94C572E1966CAF7DAF8EAFAA
:105600009FAFE1972091690B30916A0B40916B0B32
:1056100050916C0BF60160817181828193810E94AF
:105620001F6C0E94C57269966CAF7DAF8EAF9FAF45
:10563000699780912A0B83FF0EC069962CAD3DAD12
:105640004EAD5FAD69972093070C3093080C4093E3
:10565000090C50930A0C8091280B9091290B892BEF
:1056600011F00C949538D8013C9011962C9011971C
:105670001296BC912896BFAF2897F801F381FBAF33
:105680008091F50B9091F60B891B80958F7019F422
:105690000E94C026F5CF2091F50BE2962FAFE2973E
:1056A0008091F50B482F50E05CA74BA757E4859FEE
:1056B000C0011124DC01A854B94F6596BFAFAEAF4D
:1056C00065978091FB0B9091FC0BA091FD0BB09125
:1056D000FE0BA9962CAD3DAD4EAD5FADA997281B35
:1056E000390B4A0B5B0B2BA33CA34DA35EA380910C
:1056F000FF0B9091000CA091010CB091020CAD96A3
:105700008CAC9DACAEACBFACAD97881A990AAA0A16
:10571000BB0A8091030C9091040CA091050CB091F0
:10572000060CE1962CAD3DAD4EAD5FADE197281B6B
:10573000390B4A0B5B0B2FA338A749A75AA78091B7
:10574000070C9091080CA091090CB0910A0C699675
:10575000CCACDDACEEACFFAC6997C81AD90AEA0A4A
:10576000FB0A09F477C08091B70681112DC020E0B3
:1057700030E0A9016091A30B7091A40B8091A50B5F
:105780009091A60B0E9458700E94C471209146020D
:105790003091470262177307BCF469968CAD9DADDA
:1057A000AEADBFAD69978093070C9093080CA093A2
:1057B000090CB0930A0C0E94C71883ED9CE00E946C
:1057C0000F18C12CD12C7601C701B6010E94C06B05
:1057D000209142023091430240914402509145028F
:1057E0000E941F6C2B013C0120E030E0A9010E94C7
:1057F000B87287FF04C077FA709477F8709420E04D
:1058000030E048E453E46091690B70916A0B809139
:105810006B0B90916C0B0E941F6CA30192010E9474
:10582000B96B87FF17C069962CAD3DAD4EAD5FAD2E
:1058300069972093070C3093080C4093090C509300
:105840000A0C0E94C71884EB9CE00E940F18C12C20
:10585000D12C76018BA19CA1ADA1BEA18827B7FD5B
:1058600083959927AA27BB27182FB7FC12608FA111
:1058700098A5A9A5BAA5B7FD1460F7FC1860C701E3
:10588000B6010E94C06B20914202309143024091C8
:105890004402509145020E941F6C6B017C0120E084
:1058A00030E0A9010E94B87287FF02C1C701B601AA
:1058B000905820E030E040E05FE30E9458700E9482
:1058C000CB716FAB78AF89AF9AAF87E4ABA5BCA5BE
:1058D0008A9FF0018B9FF00D1124E854F94F10823C
:1058E00015AB2FA138A549A55AA52FA738AB49ABB1
:1058F0005AAB57FF0BC050954095309521953F4FBF
:105900004F4F5F4F2FA738AB49AB5AAB8BAA9CAA1E
:10591000ADAABEAAB7FE0BC088279927DC0188195B
:105920009909AA09BB098BAB9CABADABBEAB4BA035
:105930005CA06DA07EA077FE08C070946094509427
:105940004094411C511C611C711C6596AEADBFADED
:10595000659755964D925D926D927C9258972BA9C2
:105960003CA94DA95EA959962D933D934D935C9307
:105970005C972FA538A949A95AA95D962D933D9307
:105980004D935C9390976BA17CA18DA19EA10E94E9
:10599000C06B2091A7063091A8064091A9065091AE
:1059A000AA060E941F6C23966CAF7DAF8EAF9FAF8F
:1059B0002397698B7A8B8B8B9C8BC501B4010E94DA
:1059C000C06B2091AB063091AC064091AD06509172
:1059D000AE060E941F6C27966CAF7DAF8EAF9FAF57
:1059E00027976D8B7E8B8F8B988F6FA178A589A55C
:1059F0009AA50E94C06B2091AF063091B0064091ED
:105A0000B1065091B2060E941F6C4B015C01898E59
:105A10009A8EAB8EBC8E2091B3063091B406409125
:105A2000B5065091B606C701B6010E941F6C6B0106
:105A30007C01CD8EDE8EEF8EF8A2B6E04B165104BF
:105A400061047104C4F52BA93CA94DA95EA92630B7
:105A50003105410551057CF58FA598A9A9A9BAA9D9
:105A60000697A105B1053CF520E030E0A901C7018A
:105A7000B6010E94B87287FF04C0F7FAF094F7F8F5
:105A8000F09487E4ABA5BCA58A9F80018B9F100D85
:105A900011240854194F20E030E0A901C701B601D4
:105AA0000E945870F801658776878787908B23C09E
:105AB000C701B601FECE6196AEADBFAD6197CD9088
:105AC000DD90ED90FC9020E030E0A901C701B60127
:105AD0000E94B96B882309F4B7C287E42BA53CA5C3
